:100000000C9462000C9472010C948A000C948A0087
:100010000C9466010C948A000C948A000C948A005B
:100020000C948A000C948A000C948A000C948A0028
:100030000C948A000C948A000C948A000C948A0018
:100040000C9497000C948A000C948A000C948A00FB
:100050000C948A000C948A000C948A000C948A00F8
:100060000C948A000C948A000C948A000C948A00E8
:100070000C948A000C948A000C948A00C008B00882
:10008000B008B008BB08C808B008BD08B408C80864
:10009000C808C808B408C808C808BD08B408C80813
:1000A000C808C808C808C808C808C808B408C808E4
:1000B000C808C808B808C808B808BB08AB0BBB0B11
:1000C000B30BC30B11241FBECFEFD8E0DEBFCDBFF3
:1000D00013E0A0E0B1E0ECE0F5E202C005900D9283
:1000E000A430B107D9F727E0A4E0B3E001C01D9226
:1000F000A731B207E1F710E0C0E6D0E004C02197D5
:10010000FE010E94DB0BCE35D107C9F70E94A00A81
:100110000C9479120C9400009C0120573E4FFC0176
:1001200011921192CF01E217F307C9F708951F92B8
:100130000F920FB60F9211242F933F934F935F931B
:100140006F937F938F939F93AF93BF93CF93DF93DF
:10015000EF93FF9380910507882309F4A4C0809151
:100160000F0390911003892B09F083C066E082E1B0
:1001700093E00E94B00290931A038093190367E002
:1001800081E193E00E94B0029093180380931703DB
:100190008091190390911A030E94D30220910001CB
:1001A00030910101820F931F9093160380931503E2
:1001B00080911703909118030E94D30220910001AF
:1001C00030910101821B930B9093140380931303CE
:1001D000E0910503F09106038091150390911603B9
:1001E000EE0FFF1FE15FFA4F91838083E0910503DB
:1001F000F09106038091130390911403EE0FFF1FFB
:10020000E55EFC4F918380830E9447066091130353
:100210007091140380911503909116030E941706A4
:1002200080910F0390911003019690931003809397
:100230000F038091050390910603019690930603A6
:100240008093050380910D0390910E030196909386
:100250000E0380930D03C0910D03D0910E0366EB46
:1002600072E089E097E00E94E807BE010E940E0854
:100270001AC080910F0390911003019731F0809183
:100280000F0390911003029751F480910F03909106
:10029000100301969093100380930F0304C01092F3
:1002A000100310920F03FF91EF91DF91CF91BF9157
:1002B000AF919F918F917F916F915F914F913F91FE
:1002C0002F910F900FBE0F901F9018951F920F92B5
:1002D0000FB60F921124109204070F900FBE0F90CB
:1002E0001F9018951F920F920FB60F9211248F93A3
:1002F0009F938FE19EE40197F1F700C000004A9BB5
:1003000007C080910607843019F481E080930403CC
:100310009F918F910F900FBE0F901F9018958C5149
:100320009F4FFC01808187BD82E484BD8CE085BD48
:10033000089588E085BD0895811103C088E085BDDA
:10034000089590E00C948F01EF92FF920F931F930A
:10035000CF93DF93CDB7DEB727970FB6F894DEBF04
:100360000FBECDBF87E0EAE0F1E0DE01119601901B
:100370000D928A95E1F78E010F5F1F4F7E0128E0F5
:10038000E20EF11CF80181918F010E949C01FFEFA8
:1003900023ED80E3F15020408040E1F700C00000F1
:1003A0000E151F0579F727960FB6F894DEBF0FBE1E
:1003B000CDBFDF91CF911F910F91FF90EF900895E6
:1003C000CF93DF938FE390E00E948F01CFE0D0E0E6
:1003D0000E9496022197E1F788E085BDCFE0D0E04A
:1003E0000E9496022197E1F786E490E00E948F0137
:1003F000CFE0D0E00E9496022197E1F788E085BD2A
:10040000CFE0D0E00E9496022197E1F786E490E0E9
:100410000E948F01CFE0D0E00E9496022197E1F781
:1004200084E490E00E948F01CFE0D0E00E94960229
:100430002197E1F786E490E00E948F01CFE0D0E0C1
:100440000E9496022197E1F788E085BDCFE0D0E0D9
:100450000E9496022197E1F784E490E00E948F01C8
:10046000CFE0D0E00E9496022197E1F782E490E08D
:100470000E948F01CFE0D0E00E9496022197E1F721
:1004800084E490E00E948F01CFE0D0E00E949602C9
:100490002197E1F788E085BDCFE0D0E00E94960289
:1004A0002197E1F784E490E00E948F01CFE0D0E053
:1004B0000E9496022197E1F782E490E00E948F016A
:1004C000CFE0D0E00E9496022197E1F78FE390E021
:1004D0000E948F01CFE0D0E00E9496022197E1F7C1
:1004E00082E490E00E948F01CFE0D0E00E9496026B
:1004F0002197E1F788E085BDDF91CF910C948302CD
:10050000289A2998089585B18C7F85B9089585B179
:10051000837011F40C9480020C948302289B03C016
:10052000299A28980895289A299808958FE295E79E
:100530000197F1F700C00000289A29988FE097E210
:100540000197F1F700C00000299A289808951092A9
:100550007C0086E880937A00089510927A000895CE
:1005600080917C00807E80937C0080917C0067700D
:10057000682B60937C0080917A00806480937A007D
:1005800080917A0084FFFCCF80917A008061809313
:100590007A00209178008091790090E0982F882748
:1005A000820F911D08958F929F92AF92BF92CF922A
:1005B000DF92EF92FF92BC0180E090E00E94F40C89
:1005C0006B017C0122E532E041E150E40E94A60D7E
:1005D0009B01AC0164EA70E688E493E40E94E10BBD
:1005E0004B015C012DEB33EB4EE35CE3C701B6013D
:1005F0000E94A60DA70196010E94A60D9B01AC01C9
:10060000C501B4010E94E20B4B015C0127E73BEFFF
:100610004AEF57E3C701B6010E94A60DA701960154
:100620000E94A60DA70196010E94A60D9B01AC0198
:10063000C501B4010E94E10B4B015C012DE43BEAD2
:1006400040E253E3C701B6010E94A60DA70196013F
:100650000E94A60DA70196010E94A60DA701960172
:100660000E94A60D9B01AC01C501B4010E94E20BE2
:100670004B015C0124E935E34FE95DE2C701B601B6
:100680000E94A60DA70196010E94A60DA701960142
:100690000E94A60DA70196010E94A60DA701960132
:1006A0000E94A60D9B01AC01C501B4010E94E10BA3
:1006B00020E030E040E05FE30E94E20B0E94C50CC6
:1006C000CB01FF90EF90DF90CF90BF90AF909F90C5
:1006D0008F9008952F923F924F925F926F927F92E8
:1006E0008F929F92AF92BF92CF92DF92EF92FF9242
:1006F0000F931F93CF93DF93CDB7DEB72A970FB633
:10070000F894DEBF0FBECDBF49835A836B837C83D1
:1007100089019A87898722242394312CC12CD12CDA
:100720007601C901A0E0B0E08D839E83AF83B887D6
:100730000215130508F445C0A985BA8512966D9077
:100740007C9013978D919C91681A790A6D817E81B6
:100750008F8198850E94F40C9B01AC0169817A819C
:100760008B819C810E94530C4B015C01669CB00103
:10077000679C700D700D112480E090E00E94F40CD5
:100780002B013C01A5019401C501B4010E94A60DF5
:100790009B01AC01C301B2010E94E20B0E94190E41
:1007A0009B01AC01C701B6010E94E20B6B017C0109
:1007B000B3E02B0E311CE985FA853696FA87E98776
:1007C000B7CF20E030E040E05FE3C701B6010E9410
:1007D000E20B0E94C50CCB012A960FB6F894DEBF3F
:1007E0000FBECDBFDF91CF911F910F91FF90EF9082
:1007F000DF90CF90BF90AF909F908F907F906F9041
:100800005F904F903F902F900895789481B964B98C
:1008100047B92AB9089511B814B817B81AB8F89496
:10082000089520E030E02817390749F0EFE4F3ECB1
:100830003197F1F700C000002F5F3F4FF4CF0895CC
:100840007894E9E6F0E0808183608083E89A0895F7
:10085000E8E6F0E09081808189278083089578948C
:10086000E8E6F0E0808181608083EBE6F0E0808163
:100870008A608083089590E0909389008093880037
:1008800090938B0080938A00089590E09093890064
:100890008093880070E070938B0060938A000895C5
:1008A000109285001092840081EF8093800082E096
:1008B00080938100089516BC87BD82E084BD95E0D9
:1008C00095BD80936E00089516BC8FEF87BD82E0C2
:1008D00084BD95E095BD80936E000895EEE6F0E04E
:1008E00090818081892780830895F894E89AE9E6C9
:1008F000F0E0808183608083789408951092C50031
:100900008FEC8093C400E0ECF0E080818083E1EC28
:10091000F0E0808188618083E2ECF0E08081856096
:10092000808308959091C00095FFFCCF8093C6000E
:1009300008952F923F924F925F926F927F928F9283
:100940009F92AF92BF92CF92DF92EF92FF920F935E
:100950001F93CF93DF9300D000D000D0CDB7DEB788
:100960009A8389837C836B83BA0180E090E00E9444
:10097000F40C6B017C0120E030E040EC52E40E947A
:10098000530C4B015C0120E6422E512CC701B601ED
:100990000E94C50C1B01220C331CE981FA81E20D77
:1009A000F31D6080718080E66816710418F08FE591
:1009B000682E712C0FE510E0061917091E821D82A2
:1009C0008D819E818017910719F41E821D8209C0B6
:1009D00080E40E9492048D819E8101969E838D8386
:1009E000EFCF8D819E816816790649F080E20E94E2
:1009F00092048D819E8101969E838D83F2CF8CE738
:100A00000E9492040E9487028CE70E949204EB816C
:100A1000FC81E20DF31D008111810036110510F0FB
:100A20000FE510E08FE590E03C01601A710A1E822C
:100A30001D828D819E810817190719F41E821D825F
:100A400009C080E20E9492048D819E8101969E835E
:100A50008D83EFCF8D819E818615970549F080E4C7
:100A60000E9492048D819E8101969E838D83F2CF98
:100A70000E948702A5019401C701B6010E94E10B03
:100A80006B017C0120E030E0A9010E944E0C87FF41
:100A900003C0C12CD12C760191E0491A510809F00C
:100AA00075CF81E026960FB6F894DEBF0FBECDBF9E
:100AB000DF91CF911F910F91FF90EF90DF90CF903A
:100AC000BF90AF909F908F907F906F905F904F906E
:100AD0003F902F9008954F925F926F927F928F92E6
:100AE0009F92AF92BF92CF92DF92EF92FF920F93BD
:100AF0001F93CF93DF93CDB7DEB7C058D1400FB669
:100B0000F894DEBF0FBECDBF80ECE6E3F1E0DE017E
:100B1000AF53BF4F01900D928A95E1F780ECE6EF5D
:100B2000F1E0DE01119601900D928A95E1F78E01B8
:100B30000F531F4FCE0101963C012E019FE7491A2A
:100B40009EEF590A2FE5A22EB12CF801E190F19009
:100B50008F01EE0CFF1C45018E189F08C12CD12C73
:100B6000C814D90439F080E40E949204FFEFCF1A30
:100B7000DF0AF6CFC12CD12CCE14DF0439F080E28D
:100B80000E9492048FEFC81AD80AF6CF8CE70E9411
:100B900092040E9487028CE70E949204F301E19084
:100BA000F1903F01EE0CFF1C45018E189F08C12CEF
:100BB000D12CCE14DF0419F4E12CF12C07C080E213
:100BC0000E949204FFEFCF1ADF0AF3CFE814F90472
:100BD00039F080E40E9492048FEFE81AF80AF6CF09
:100BE0000E9487020415150509F0AFCF81E0C058B7
:100BF000DE4F0FB6F894DEBF0FBECDBFDF91CF91B1
:100C00001F910F91FF90EF90DF90CF90BF90AF902A
:100C10009F908F907F906F905F904F90089520E00D
:100C200040E068EB72E089E097E00C9427070F93AF
:100C30001F93CF93DF938C01EB0120E040E068EC41
:100C400072E089E097E00E942707B80189E097E009
:100C50000E940E0860ED72E089E097E00E94E807CC
:100C600020E040E164ED72E089E097E00E94270710
:100C7000BE0189E097E00E940E0860ED72E089E015
:100C800097E0DF91CF911F910F910C94E80789E0D5
:100C900097E00C94190720E040E068EB72E089E0EF
:100CA00097E00E9427072FEF8DE399E421508040C1
:100CB0009040E1F700C0000020E040E16CED72E000
:100CC00089E097E00E9427072FE38EEC90E0215007
:100CD00080409040E1F700C0000065EE72E089E0DE
:100CE00097E00E94E8072FE38EEC90E021508040CF
:100CF0009040E1F700C0000065EE72E089E097E007
:100D00000E94E8072FE38EEC90E021508040904055
:100D1000E1F700C0000089E097E00C9419079BB14F
:100D20009C609BB90C943B049BB1936F9BB90C9452
:100D30003B048FEF0C943B048BB18C608BB96AE55C
:100D400088EC0C9445048BB18C608BB968EC8AE517
:100D50000C9445048BB1837F88608BB964E68FEF78
:100D60000C9445048BB1837F84608BB96FEF84E66C
:100D70000C9445048BB18C608BB966E98FEF0C94B1
:100D800045048BB18C608BB96FEF86E90C944504F8
:100D9000CF93DF93EC01CB01188219821A821B8258
:100DA0005D834C8318861986BA010E94FD094C8127
:100DB0005D8160E081E00E94B50980E190E00E94E1
:100DC0006E0E9F838E83DF91CF910895FC01868103
:100DD00097810C94060F1F93CF93DF93EC01162F8E
:100DE0002C813D81462F6B8181E00E94BD091A83D1
:100DF000DF91CF911F9108951F93CF93DF93EC0163
:100E0000162F2C813D814A8181E00E94BD091B8300
:100E1000DF91CF911F910895FC01862F603240F43D
:100E2000618364817581803108F0805D0C94F009E4
:100E30000895CF93DF93EC018C819D810E94A909D5
:100E400018826981CE01DF91CF910C940C076F92CB
:100E50007F928F929F92AF92BF92CF92DF92EF924A
:100E6000FF920F931F93CF93DF936115710509F4E0
:100E700076C0E22EF42E8B01EC01CB010E94580AC1
:100E80006C017A808B8060E0CE010E94EB0660E00E
:100E9000CE010E94FC06EE2019F0CE010E94190737
:100EA0002FE12F1508F45BC04F2D50E0C6019927A4
:100EB00020E230E0241B350B281739070CF44FC013
:100EC0009C2C6C817D81EFE0EF1548F1840F951F1C
:100ED000409724F080E1E82EEF1801C0EC2C8F2D14
:100EE0000E94F009602E58016C817D818A2D86193F
:100EF0008E1530F4F50181915F010E94F709F4CF5E
:100F000080E40E94F009E914E0F46C817D81F8012D
:100F1000EE0DF11D80810E94F709E394F4CF80E388
:100F20008F0D0E94F009E02E58018A2D8E19891527
:100F300040F46C817D81F50181915F010E94F70988
:100F4000F4CF6981CE010E940C07672DCE010E946B
:100F5000EB06682DCE010E94FC06FC0CF882DF91A6
:100F6000CF911F910F91FF90EF90DF90CF90BF90A6
:100F7000AF909F908F907F906F900895EF92FF9227
:100F80000F931F93CF93DF938C016830D0F44115FA
:100F90005105B9F0EA01862FF80164817581880F47
:100FA000880F880F0E94E8097E01F8E0EF0EF11C1F
:100FB000F8016481758189910E94F709CE15DF05DA
:100FC000B9F7DF91CF911F910F91FF90EF900895A6
:100FD000CF93DF93EC016115710521F020E048818A
:100FE0000E942707CE01DF91CF9108950F931F93A1
:100FF000CF93DF9300D0CDB7DEB78C011A82198270
:101000006983BE016F5F7F4F0E94E807C8010F90A0
:101010000F90DF91CF911F910F910895CF93DF93A0
:10102000EC017F936F938AEE92E09F938F938F8171
:101030008F938E818F930E948F0F6E817F81CE015F
:101040000E94E8070F900F900F900F900F900F9055
:10105000CE01DF91CF910895CF93DF93EC017F9381
:101060006F938DEE92E09F938F938F818F938E81FC
:101070008F930E948F0F6E817F81CE010E94E807BF
:101080000F900F900F900F900F900F90CE01DF9167
:10109000CF910895CF93DF93EC011F926F9380EF70
:1010A00092E09F938F938F818F938E818F930E9475
:1010B0008F0F6E817F81CE010E94E8070F900F9005
:1010C0000F900F900F900F90CE01DF91CF91089568
:1010D0000F931F93CF93DF93EC018B016115710583
:1010E00061F0288581E028274985CE010E942707E5
:1010F0008885882311F018861986C801DF91CF9161
:101100001F910F910895603220F4FC01618721E066
:10111000208708950F931F93CF93DF93EC0188816D
:10112000082F681708F4062F801B888310E010171B
:1011300031F060E2CE010E94F6071F5FF8CF888190
:10114000811B8883DF91CF911F910F910895CF93D9
:10115000DF938F7190E0FC01E25CFF4F0C94DB0B9E
:10116000DF91CF910C949C06DF91CF910C94A30654
:1011700081E0FA0180838CE80CC0FA011082FBCF79
:10118000EB010E94990681E08883DF91CF91089559
:101190008AE5DF91CF910C948F06DF92EF92FF9258
:1011A0000F931F93CF93DF93D82E8B017A01E90120
:1011B0000E942F04F70180818823E1F1813009F03A
:1011C00078C088819981009771F4A701B8018D2DAD
:1011D0008F710E94A708F8018081882309F469C0F3
:1011E0000E94AA06F8CF029709F063C0A701B801D0
:1011F0008D2D8F710E94A7088CE80E948F06FFE753
:1012000020EC84E1F15020408040E1F700C0000074
:101210000E9499069FE7E0ECF4E19150E040F04035
:10122000E1F700C00000F8018081882359F10E9495
:10123000C106F9CF88819981009739F5A701B801D6
:101240008D2D8F710E94A7088CE80E948F06FFE702
:1012500020EC84E1F15020408040E1F700C0000024
:101260000E9499069FE7E0ECF4E19150E040F040E5
:10127000E1F700C00000F8018081882319F00E9486
:10128000BA06F9CF0E9499060FC0019791F4A70101
:10129000B8018D2D8F710E94A708F80180818823E5
:1012A00019F00E94B206F9CF88819981019699833D
:1012B0008883DF91CF911F910F91FF90EF90DF9086
:1012C0000C942804FC0180818062808384E08A95EC
:1012D000F1F780818F7D80830895EF92FF920F93C5
:1012E0001F93CF93DF93162F042FE90190E8899F76
:1012F000700111248881817288832881862F90E073
:1013000034E0959587953A95E1F7880F991F8E29D6
:10131000822B8883CE010E94620988818172888332
:1013200088811F70110F1E29182B1883CE010E946F
:10133000620980E0801731F09AE19A95F1F700C0D8
:101340008F5FF8CFDF91CF911F910F91FF90EF90BA
:1013500008959C0144EA61E080E00C946D099C01D1
:1013600044EA62E080E00C946D099A01880F6460A1
:10137000682B44E080E00C946D09660F4860462BB2
:1013800054E0859FC0011124642F682B44E080E065
:101390000C946D099A0144E0649FB00111246061CE
:1013A00048E0849FC0011124682B44E080E00C9445
:1013B0006D099A0148E0649FB0011124606240E128
:1013C000849FC0011124682B44E080E00C946D09D7
:1013D0009B018F77682F606444E080E00C946D0976
:1013E0009B01682F606844E080E00C946D099B01CC
:1013F00044E0682F81E00C946D09CF93DF93FC01EA
:10140000EB018FE295E70197F1F700C000008081C2
:101410008172808380818FEF80838881817288834D
:1014200088818660888388818E7F8883CB010E9433
:10143000620987E090E20197F1F700C00000CE0159
:101440000E94620987EC90E00197F1F700C000006C
:10145000CE010E9462099AE69A95F1F700C0888150
:1014600081728883888184608883CE010E946209AA
:101470008AE68A95F1F700C09E0144E06CE280E0C4
:101480000E946D099E0140E060E080E00E94BD097D
:10149000CE010E94A909AE0160E081E00E94B50979
:1014A0009E0140E060E081E0DF91CF910C94BD09A6
:1014B000FC0131969F01281B390B41914111FACF54
:1014C000C90108950F931F93CF93DF93FC01CB01C4
:1014D0001786009739F08F01015F1F4F2EE0C42F50
:1014E000D0E007C080E38687CF010E9615C0222387
:1014F00071F0BE010E94C70BDC01AD50BD4F8C9155
:10150000D8018E938D012150CB01009781F7822F56
:1015100090E001968E0F9F1FDF91CF911F910F9149
:10152000089520E030E02817390749F0EFECF7E0A4
:101530003197F1F700C000002F5F3F4FF4CF0895BF
:101540008FE095E00E948C008BE193E00E948C007C
:1015500020E04FEF6FEF80E00E9405040E945004EE
:101560000E94640484E0B82EC1E093E0C92E22E01A
:10157000D22E07E010E039EFE32EFF24FA94D09149
:101580000607D23009F471C028F4DD23A1F0D13070
:1015900041F1F7CFD33009F493C0D43091F70E94D2
:1015A0007E0420E04FEF6FEF80E00E9405041BB83F
:1015B0000E947504BFC00E940F062FEF8DE399E4CF
:1015C000215080409040E1F700C000000E94470693
:1015D0002FEF4FEF6FEF80E00E940504C0930607E6
:1015E000CECF80910703811109C080910803882321
:1015F00029F0F0920101E092000104C01093010172
:10160000009300011092040780B18F718F3139F47B
:101610008091070790910807892B09F490C080B149
:1016200043E057E064E077E08F710E94A708809163
:101630000407882321F0D09206071092050780B195
:101640008F718F3139F480910707909108070397C4
:1016500009F479C080910707909108078D7F019761
:1016600009F08DCFC09305078ACF1092050780B18E
:1016700027E037E043E057E064E077E08F710E94B5
:10168000CD08C0930607809107079091080700973F
:1016900051F480910803811172CF10920507C5B9EA
:1016A000C09308036CCF029709F069CF80910703BC
:1016B000811165CF10920507D5B9C09307035FCF9D
:1016C0001092050720910D0330910E0340E050E089
:1016D00062E073E48FE095E00E946A0390930C034C
:1016E00080930B0320910D0330910E0340E050E0F6
:1016F00062E073E48BE193E00E946A0390930A0333
:1017000080930903BC0180910B0390910C030E940C
:101710001706B092060733CF40910D0350910E0388
:101720006BE173E08FE095E00E9499040E94E00174
:1017300010920403809104038823E1F3EDCFC0935A
:101740000507D5B86CCF1092050715B80E94990609
:10175000C09206077FCF82E193E00E94A70281E159
:1017600093E00C94A70281E193E00E94AD0282E134
:1017700093E00C94AD0248E250E067E270E089E04B
:1017800097E00C94C80689E097E00C94E606AA1B43
:10179000BB1B51E107C0AA1FBB1FA617B70710F05C
:1017A000A61BB70B881F991F5A95A9F7809590958E
:1017B000BC01CD010895EE0FFF1F0590F491E02DBF
:1017C00009945058BB27AA270E94F90B0C946C0D62
:1017D0000E945E0D38F00E94650D20F039F49F3FA5
:1017E00019F426F40C945B0D0EF4E095E7FB0C94D1
:1017F000550DE92F0E947D0D58F3BA176207730744
:101800008407950720F079F4A6F50C949F0D0EF44B
:10181000E0950B2EBA2FA02D0B01B90190010C0100
:10182000CA01A0011124FF27591B99F0593F50F418
:10183000503E68F11A16F040A22F232F342F442770
:10184000585FF3CF469537952795A795F040539568
:10185000C9F77EF41F16BA0B620B730B840BBAF038
:101860009150A1F0FF0FBB1F661F771F881FC2F7A3
:101870000EC0BA0F621F731F841F48F487957795B7
:101880006795B795F7959E3F08F0B0CF9395880F71
:1018900008F09927EE0F9795879508950E94310DCE
:1018A00008F481E008950E94670C0C946C0D0E946E
:1018B000650D58F00E945E0D40F029F45F3F29F05D
:1018C0000C94550D51110C94A00D0C945B0D0E94BD
:1018D0007D0D68F39923B1F3552391F3951B550BB7
:1018E000BB27AA2762177307840738F09F5F5F4FF3
:1018F000220F331F441FAA1FA9F335D00E2E3AF032
:10190000E0E832D091505040E695001CCAF72BD049
:10191000FE2F29D0660F771F881FBB1F261737079A
:101920004807AB07B0E809F0BB0B802DBF01FF27CC
:1019300093585F4F3AF09E3F510578F00C94550D47
:101940000C94A00D5F3FE4F3983ED4F38695779511
:101950006795B795F7959F5FC9F7880F911D969585
:10196000879597F90895E1E0660F771F881FBB1FE1
:10197000621773078407BA0720F0621B730B840B8E
:10198000BA0BEE1F88F7E09508950E94850D88F048
:101990009F5798F0B92F9927B751B0F0E1F0660F33
:1019A000771F881F991F1AF0BA95C9F714C0B13074
:1019B00091F00E949F0DB1E008950C949F0D672F48
:1019C000782F8827B85F39F0B93FCCF386957795A3
:1019D0006795B395D9F73EF490958095709561958C
:1019E0007F4F8F4F9F4F0895E89409C097FB3EF4B7
:1019F00090958095709561957F4F8F4F9F4F99235C
:101A0000A9F0F92F96E9BB279395F69587957795D9
:101A10006795B795F111F8CFFAF4BB0F11F460FF99
:101A20001BC06F5F7F4F8F4F9F4F16C0882311F0F1
:101A300096E911C0772321F09EE8872F762F05C005
:101A4000662371F096E8862F70E060E02AF09A95A0
:101A5000660F771F881FDAF7880F9695879597F995
:101A60000895990F0008550FAA0BE0E8FEEF16162F
:101A70001706E807F907C0F012161306E407F50782
:101A800098F0621B730B840B950B39F40A2661F0F6
:101A9000232B242B252B21F408950A2609F4A14099
:101AA000A6958FEF811D811D089597F99F6780E8A6
:101AB00070E060E008959FEF80EC089500240A94A0
:101AC0001616170618060906089500240A94121619
:101AD0001306140605060895092E0394000C11F44C
:101AE000882352F0BB0F40F4BF2B11F460FF04C0F9
:101AF0006F5F7F4F8F4F9F4F089557FD9058440F52
:101B0000551F59F05F3F71F04795880F97FB991F5C
:101B100061F09F3F79F08795089512161306140619
:101B2000551FF2CF4695F1DF08C0161617061806A6
:101B3000991FF1CF86957105610508940895E89481
:101B4000BB2766277727CB0197F908950E94B90D27
:101B50000C946C0D0E945E0D38F00E94650D20F013
:101B6000952311F00C94550D0C945B0D11240C94DD
:101B7000A00D0E947D0D70F3959FC1F3950F50E06D
:101B8000551F629FF001729FBB27F00DB11D639F2F
:101B9000AA27F00DB11DAA1F649F6627B00DA11DD5
:101BA000661F829F2227B00DA11D621F739FB00D7B
:101BB000A11D621F839FA00D611D221F749F3327EB
:101BC000A00D611D231F849F600D211D822F762F84
:101BD0006A2F11249F5750409AF0F1F088234AF061
:101BE000EE0FFF1FBB1F661F771F881F91505040CD
:101BF000A9F79E3F510580F00C94550D0C94A00D53
:101C00005F3FE4F3983ED4F3869577956795B79553
:101C1000F795E7959F5FC1F7FE2B880F911D96956D
:101C2000879597F9089519F416F40C945B0D0C94AC
:101C3000590E0E94850DB8F39923C9F3B6F39F5747
:101C4000550B87FF0E94670E0024A0E640EA900132
:101C500080585695979528F4805C660F771F881FEB
:101C600020F026173707480730F4621B730B840BEC
:101C7000202931294A2BA695179407942025312530
:101C80004A2758F7660F771F881F20F02617370757
:101C9000480730F4620B730B840B200D311D411D7E
:101CA000A09581F7B901842F9158880F9695879553
:101CB00008959F3F31F0915020F48795779567956F
:101CC000B795880F911D9695879597F9089591502E
:101CD0005040660F771F881FD2F708950F931F9308
:101CE000CF93DF938230910510F482E090E0E09191
:101CF0001507F091160720E030E0A0E0B0E0309743
:101D000019F1408151810281138148175907C8F0A8
:101D10008417950769F4109731F012960C93129777
:101D200013961C9327C0009315071093160722C023
:101D30002115310519F04217530718F49A01BD0116
:101D4000EF01DF01F801DBCF21153105F9F0281B88
:101D5000390B2430310580F48A819B81611571052E
:101D600021F0FB019383828304C090931607809334
:101D70001507FE01329644C0FE01E20FF31F819366
:101D8000919322503109398328833AC02091130757
:101D900030911407232B41F4209106013091070163
:101DA000309314072093130720910401309105010B
:101DB0002115310541F42DB73EB7409108015091EE
:101DC0000901241B350BE0911307F0911407E2176A
:101DD000F307A0F42E1B3F0B2817390778F0AC014E
:101DE0004E5F5F4F2417350748F04E0F5F1F50932B
:101DF0001407409313078193919302C0E0E0F0E051
:101E0000CF01DF91CF911F910F910895CF93DF9371
:101E1000009709F481C0FC01329713821282A091CD
:101E20001507B0911607109781F420813181820F38
:101E3000931F20911307309114072817390751F584
:101E4000F0931407E093130767C0ED0120E030E042
:101E5000CE17DF0740F44A815B819E014115510591
:101E6000F1F0EA01F5CFD383C28340815181840F21
:101E7000951FC817D90759F488819981840F951F38
:101E80000296918380838A819B819383828321152B
:101E9000310529F4F0931607E09315073DC0E901D9
:101EA000FB83EA8349915991C40FD51FEC17FD07B5
:101EB00061F480819181840F951F0296E9019983D5
:101EC0008883828193819B838A83E0E0F0E012968D
:101ED0008D919C911397009719F0FD01DC01F7CFCC
:101EE0008D919C9111979D012E5F3F4F820F931F03
:101EF00020911307309114072817390769F4309798
:101F000029F4109216071092150702C0138212824C
:101F1000B0931407A0931307DF91CF910895AEE01B
:101F2000B0E0E5E9FFE00C9450120D891E8986E0CF
:101F30008C831A8309838FEF9FE79E838D83AE0185
:101F4000475E5F4F6F89788DCE0101960E94B10F79
:101F5000EF81F885E00FF11F10822E96E4E00C94DB
:101F60006C12ABE0B0E0E7EBFFE00C9442126C01C6
:101F70007B018A01FC0117821682838181FFCCC11B
:101F8000CE0101963C01F6019381F70193FD859105
:101F900093FF81917F01882309F4BAC1853239F416
:101FA00093FD859193FF81917F01853229F4B601DC
:101FB00090E00E94A811E7CF912C212C312CFFE159
:101FC000F315D8F08B3279F038F4803279F083321F
:101FD000A1F4232D20611DC08D3261F0803369F49E
:101FE000232D216016C0832D8260382EE32DE460FE
:101FF0003E2E2AC0F32DF8601DC037FC2DC020ED09
:10200000280F2A3040F08E32B9F436FC81C1232DDE
:102010002064322E19C036FE06C08AE0989E200D3C
:102020001124922E11C0EAE02E9E200D1124222EA2
:10203000F32DF0623F2E08C08C3621F4832D80688A
:10204000382E02C0883641F4F70193FD859193FF45
:1020500081917F018111B3CF982F9F7D955493304B
:1020600028F40C5F1F4F9FE399830DC0833631F036
:10207000833771F0833509F059C021C0F8018081A0
:1020800089830E5F1F4F88248394912C530113C0C2
:102090002801F2E04F0E511CF801A080B18036FEFD
:1020A00003C0692D70E002C06FEF7FEFC5010E9491
:1020B0009D114C018201F32DFF773F2E16C02801A0
:1020C00022E0420E511CF801A080B18036FE03C010
:1020D000692D70E002C06FEF7FEFC5010E94921181
:1020E0004C01F32DF0683F2E820133FC1BC0822D82
:1020F00090E088169906B0F4B60180E290E00E9464
:10210000A8112A94F4CFF50137FC859137FE81910F
:102110005F01B60190E00E94A81121102A9421E0ED
:10212000821A91088114910471F7E8C0843611F085
:10213000893641F5F80137FE07C0608171818281DF
:1021400093810C5F1F4F08C060817181072E000CC6
:10215000880B990B0E5F1F4FF32DFF763F2E97FFD5
:1021600009C090958095709561957F4F8F4F9F4FD7
:10217000F0683F2E2AE030E0A3010E94E411882E8F
:10218000861845C0853731F4232D2F7EB22E2AE0E4
:1021900030E025C0932D997FB92E8F36C1F018F409
:1021A000883579F0B5C0803719F0883721F0B0C094
:1021B000E92FE061BE2EB4FE0DC0FB2DF460BF2EF2
:1021C00009C034FE0AC0292F2660B22E06C028E0BE
:1021D00030E005C020E130E002C020E132E0F8014B
:1021E000B7FE07C060817181828193810C5F1F4FB0
:1021F00006C06081718180E090E00E5F1F4FA301F7
:102200000E94E411882E8618FB2DFF773F2E36FEA4
:102210000DC0232D2E7FA22E891458F434FE0BC03E
:1022200032FC09C0832D8E7EA82E05C0B82CA32CAD
:1022300003C0B82C01C0B92CA4FE0FC0FE01E80DEC
:10224000F11D8081803321F49A2D997EA92E09C039
:10225000A2FE06C0B394B39404C08A2D867809F018
:10226000B394A3FC11C0A0FE06C0B21488F4280CDD
:10227000922C9B180EC0B21460F4B60180E290E07C
:102280000E94A811B394F7CFB21418F42B1802C00F
:10229000982C212CA4FE10C0B60180E390E00E948F
:1022A000A811A2FE17C0A1FC03C088E790E002C0FD
:1022B00088E590E0B6010CC08A2D867859F0A1FE21
:1022C00002C08BE201C080E2A7FC8DE2B60190E083
:1022D0000E94A811891438F4B60180E390E00E94AE
:1022E000A8119A94F7CF8A94F301E80DF11D80812B
:1022F000B60190E00E94A8118110F5CF222009F4C8
:1023000042CEB60180E290E00E94A8112A94F6CF56
:10231000F6018681978102C08FEF9FEF2B96E2E155
:102320000C945E12FC010590615070400110D8F7CA
:10233000809590958E0F9F1F0895FC01615070400D
:1023400001900110D8F7809590958E0F9F1F0895EA
:102350000F931F93CF93DF93FB01238121FD03C0D4
:102360008FEF9FEF2CC022FF16C04681578124813A
:1023700035814217530744F4A081B1819D012F5F3D
:102380003F4F318320838C93268137812F5F3F4FCE
:102390003783268314C08B01EC01FB010084F18597
:1023A000E02D0995892BE1F6D80116968D919C9127
:1023B0001797019617969C938E931697CE01DF91EF
:1023C000CF911F910F910895FA01AA27283051F15A
:1023D000203181F1E8946F936E7F6E5F7F4F8F4F56
:1023E0009F4FAF4FB1E03ED0B4E03CD0670F781FB5
:1023F000891F9A1FA11D680F791F8A1F911DA11D9A
:102400006A0F711D811D911DA11D20D009F46894D2
:102410003F912AE0269F11243019305D3193DEF67A
:10242000CF010895462F4770405D4193B3E00FD030
:10243000C9F7F6CF462F4F70405D4A3318F0495D1B
:1024400031FD4052419302D0A9F7EACFB4E0A695FE
:102450009795879577956795BA95C9F70097610520
:10246000710508959B01AC010A2E06945795479576
:1024700037952795BA95C9F7620F731F841F951F6B
:10248000A01D08952F923F924F925F926F927F927C
:102490008F929F92AF92BF92CF92DF92EF92FF9274
:1024A0000F931F93CF93DF93CDB7DEB7CA1BDB0B20
:1024B0000FB6F894DEBF0FBECDBF09942A883988C5
:1024C00048885F846E847D848C849B84AA84B984CC
:1024D000C884DF80EE80FD800C811B81AA81B981D8
:1024E000CE0FD11D0FB6F894DEBF0FBECDBFED01EC
:1024F000089510E0C0E6D0E004C0FE010E94DB0BAE
:0C2500002196C236D107C9F7F894FFCF2E
:10250C00070007060000170720003C4043484340E3
:10251C003C8D877E777069635E59544F4A46423EC4
:10252C003B3734312E2C29272523211F1D1B1A182C
:10253C0017151413121114001400140014001400B5
:10254C0014001400140014001400140014001400DF
:10255C00140014001400170019001C001E002100A8
:10256C002300260028002600230021001E001C004A
:10257C0019001700140014001400140014001400A7
:10258C0014001400140012000F000D000A000800C3
:10259C000500030000000300050008000A000D0000
:1025AC000F00120014001400140014001400140086
:1025BC00140014001400140014001400140014006F
:1025CC00140014001400140014001400140014005F
:1025DC00140014001400140014001400140014004F
:1025EC00140014001400140014001400140014003F
:1025FC0014001400140000000300060009000C0075
:10260C000F001200150018001B001E0021002400F2
:10261C0021001E001B001800150012000F000C00FA
:10262C0009000600030000000300060009000C006E
:10263C000F001200150018001B001E0021002400C2
:10264C0021001E001B001800150012000F000C00CA
:10265C0009000600030000000300060009000C003E
:10266C000F001200150018001B001E002100240092
:10267C0021001E001B001800150012000F000C009A
:10268C0009000600030000000300060009000C000E
:10269C000F001200150018001B001E002100240062
:1026AC0021001E001B001800150012000F000C006A
:1026BC0009000600030020004D65636861205A651F
:1026CC00726F2053696F6E004741554348453A007D
:1026DC0020636D0044524F4954453A004E65737166
:1026EC007569636B0076656570002575002569005A
:1026FC002563003031323334353637383961626313
:04270C00646566009A
:00000001FF
