:100000000C945E000C9470000C9470000C947000C2
:100010000C9472000C9470000C9470000C9470009E
:100020000C9470000C9470000C9470000C94700090
:100030000C9470000C9470000C9470000C94700080
:100040000C9470000C9470000C9470000C94700070
:100050000C9470000C9470000C9470000C94700060
:100060000C9470000C9470000C9470000C94700050
:100070000C9470000C9470000C9470002B011C0107
:100080001C011C01330133011C0128012001330133
:1000900033013301200133013301280120013301F1
:1000A00033013301330133013301330120013301C3
:1000B00033013301240133012401330111241FBE14
:1000C000CFEFD8E0DEBFCDBF21E0A0E0B1E001C0BE
:1000D0001D92A630B207E1F70E94BC010C941D02EC
:1000E0000C9400001F920F920FB60F9211241092E1
:1000F00001010F900FBE0F901F901895789481B951
:1001000064B947B92AB908951092C5008FEC80935D
:10011000C400E0ECF0E080818083E1ECF0E08081DD
:1001200088618083E2ECF0E08081856080830895BF
:1001300011B814B817B81AB8F894089520E030E050
:100140002817390749F0EFE4F3EC3197F1F700C0D5
:1001500000002F5F3F4FF4CF08957894E9E6F0E078
:10016000808183608083E89A0895E8E6F0E09081DA
:1001700080818927808308957894E8E6F0E0808183
:1001800081608083EBE6F0E080818E60808308955B
:1001900090E0909389008093880090938B008093E7
:1001A0008A00089590E0909389008093880070E021
:1001B00070938B0060938A000895109285001092CE
:1001C000840081EF8093800082E080938100089515
:1001D0009BB19C609BB90C94C8009BB1936F9BB979
:1001E0000C94C8008FEF0C94C8008BB18C608BB955
:1001F0006AE588EC0C94D2008BB18C608BB968EC0A
:100200008AE50C94D2008BB1837F88608BB96AE554
:100210008FEF0C94D2008BB1837F84608BB96FEF2A
:100220008AE50C94D200CF93DF938F7190E0FC01AC
:10023000E25CFF4F0C941702DF91CF910C94F50014
:10024000DF91CF910C94FC0081E0FA0180830BC018
:10025000FA01108208C0EB010E94F20081E088835D
:10026000DF91CF9108958AE5DF91CF910C94E8005A
:10027000DF92EF92FF920F931F93CF93DF93D82ECD
:10028000EB017A018901FA0180818823C9F181306B
:1002900009F06AC0F90180819181892B51F48D2D7B
:1002A0008F710E9413018881882319F00E94030135
:1002B000FACFF80180819181019709F055C0A7011B
:1002C000BE018D2D8F710E9413018AE50E94E80006
:1002D000FFE720EC84E1F15020408040E1F700C0CE
:1002E00000000E94F2008881882319F00E94030117
:1002F000FACFF8018081918101969183808334C087
:10030000F90180819181892BF1F48D2D8F710E94EB
:1003100013018AE50E94E800FFE720EC84E1F15038
:1003200020408040E1F700C000000E94F200888178
:10033000882319F00E940B01FACFF8018081918186
:10034000019691838083F80180819181019761F406
:10035000A701BE018D2D8F710E9413018881882312
:1003600019F00E940B01FACFDF91CF911F910F91ED
:10037000FF90EF90DF9008952FEF4FEF6FEF80E049
:100380000E947E000E94DD00D3E012E0C1E0809177
:1003900003018130C9F0A8F08230D9F70E94BC0077
:1003A00080B124E031E040E051E061E071E08F7124
:1003B0000E9438010E94B500C0930301C09302015E
:1003C000E6CFC0930301E3CF1092010190B19F717A
:1003D0009F3131F42091040130910501232B19F153
:1003E00080B140E051E061E071E08F710E94130143
:1003F00080910101882321F01093030110920201E2
:1004000080B18F718F3119F68091040190910501AF
:10041000029709F0BCCF1092020115B80E94F200B9
:10042000D0930301B4CF8093020185B9D9CFEE0FE9
:0E043000FF1F0590F491E02D0994F894FFCF82
:00000001FF
